:020000040800F2
:1000000000C00020C51A00080D1500080F150008D3
:100010001115000813150008151500080000000050
:10002000000000000000000000000000171500089C
:1000300019150008000000001B1500081D15000818
:100040000D1B00080D1B00080D1B00080D1B0008F0
:100050000D1B00080D1B0008251500082F150008B2
:10006000391500080D1B00080D1B00080D1B0008AA
:100070000D1B00080D1B00080D1B00080D1B0008C0
:100080000D1B00080D1B00080D1B00080D1B0008B0
:100090000D1B00080D1B00080D1B00080D1B0008A0
:1000A0000D1B0008451500080D1B00080D1B00085E
:1000B0005515000865150008751500080D1B00088A
:1000C0000D1B00080D1B00080D1B00080D1B000870
:1000D0000D1B00080D1B00080D1B00080D1B000860
:1000E0000D1B00080D1B00080D1B00080D1B000850
:1000F0000D1B00080D1B00080D1B00080D1B000840
:100100000D1B00080D1B0008851500080D1B0008BD
:100110000D1B00080D1B00080D1B00080D1B00081F
:100120000D1B00080D1B00080D1B00080D1B00080F
:1001300000000000000000000000000000000000BF
:1001400000000000000000000000000000000000AF
:10015000000000000000000000000000000000009F
:10016000000000000000000000000000000000008F
:10017000000000000000000000000000000000007F
:10018000000000000000000000000000000000006F
:10019000000000000000000000000000000000005F
:1001A000000000000000000000000000000000004F
:1001B000000000000000000000000000000000003F
:1001C000000000000000000000000000000000002F
:1001D000000000000000000000000000000000001F
:0401E0005FF8E0F1F3
:1001E80010B5054C237833B9044B13B10448AFF369
:1001F80000800123237010BD64040020000000006B
:100208002044000808B5034B1BB103490348AFF36A
:10021800008008BD00000000680400202044000899
:1002280081F0004102E000BF83F0004330B54FEA9F
:1002380041044FEA430594EA050F08BF90EA020F0C
:100248001FBF54EA000C55EA020C7FEA645C7FEA9F
:10025800655C00F0E2804FEA5454D4EB5555B8BFC2
:100268006D420CDD2C4480EA020281EA030382EA33
:10027800000083EA010180EA020281EA0303362DC5
:1002880088BF30BD11F0004F4FEA01314FF4801C98
:100298004CEA113102D0404261EB410113F0004FAA
:1002A8004FEA03334CEA133302D0524263EB430361
:1002B80094EA050F00F0A780A4F10104D5F1200EFF
:1002C8000DDB02FA0EFC22FA05F2801841F100015A
:1002D80003FA0EF2801843FA05F359410EE0A5F12E
:1002E80020050EF1200E012A03FA0EFC28BF4CF05F
:1002F800020C43FA05F3C01851EBE37101F0004515
:1003080007D54FF0000EDCF1000C7EEB00006EEB21
:100318000101B1F5801F1BD3B1F5001F0CD34908AB
:100328005FEA30004FEA3C0C04F101044FEA445202
:1003380012F5800F80F09A80BCF1004F08BF5FEA89
:10034800500C50F1000041EB045141EA050130BD69
:100358005FEA4C0C404141EB0101013C28BFB1F57B
:10036800801FE9D291F0000F04BF01460020B1FAC6
:1003780081F308BF2033A3F10B03B3F120020CDA99
:100388000C3208DD02F1140CC2F10C0201FA0CF077
:1003980021FA02F10CE002F11402D8BFC2F1200CDC
:1003A80001FA02F120FA0CFCDCBF41EA0C01904092
:1003B800E41AA2BF01EB0451294330BD6FEA0404DB
:1003C8001F3C1CDA0C340EDC04F11404C4F12002C6
:1003D80020FA04F001FA02F340EA030021FA04F3D8
:1003E80045EA030130BDC4F10C04C4F1200220FA2F
:1003F80002F001FA04F340EA0300294630BD21FA6D
:1004080004F0294630BD94F0000F83F4801306BF32
:1004180081F480110134013D4EE77FEA645C18BF26
:100428007FEA655C29D094EA050F08BF90EA020FBD
:1004380005D054EA000C04BF1946104630BD91EAB5
:10044800030F1EBF0021002030BD5FEA545C05D1B8
:100458004000494128BF41F0004130BD14F58004F7
:100468003CBF01F5801130BD01F0004545F0FE416B
:1004780041F470014FF0000030BD7FEA645C1ABFA0
:10048800194610467FEA655C1CBF0B46024650EAD7
:10049800013406BF52EA033591EA030F41F4002103
:1004A80030BD00BF90F0000F04BF0021704730B589
:1004B8004FF4806404F132044FF000054FF000015E
:1004C80050E700BF90F0000F04BF0021704730B51F
:1004D8004FF4806404F1320410F0004548BF4042F4
:1004E8004FF000013EE700BF42004FEAE2014FEA49
:1004F80031014FEA02701FBF12F07F4393F07F4F24
:1005080081F06051704732F07F4208BF704793F026
:100518007F4F04BF41F40021704730B54FF4607439
:1005280001F0004521F000411CE700BF50EA01023C
:1005380008BF704730B54FF000050AE050EA0102E5
:1005480008BF704730B511F0004502D5404261EB55
:1005580041014FF4806404F132045FEA915C3FF496
:10056800D8AE4FF003025FEADC0C18BF03325FEA33
:10057800DC0C18BF033202EBDC02C2F1200300FAE4
:1005880003FC20FA02F001FA03FE40EA0E0021FA09
:1005980002F11444BDE600BF70B54FF0FF0C4CF4F7
:1005A800E06C1CEA11541DBF1CEA135594EA0C0FA9
:1005B80095EA0C0F00F0DEF82C4481EA030621EAE4
:1005C8004C5123EA4C5350EA013518BF52EA03351F
:1005D80041F4801143F4801338D0A0FB02CE4FF0D1
:1005E8000005E1FB02E506F00042E0FB03E54FF001
:1005F8000006E1FB03569CF0000F18BF4EF0010EF9
:10060800A4F1FF04B6F5007F64F5407404D25FEAF4
:100618004E0E6D4146EB060642EAC62141EA5551A7
:100628004FEAC52040EA5E504FEACE2EB4F1FD0CE9
:1006380088BFBCF5E06F1ED8BEF1004F08BF5FEA67
:10064800500E50F1000041EB045170BD06F0004619
:1006580046EA010140EA020081EA0301B4EB5C04C6
:10066800C2BFD4EB0C0541EA045170BD41F48011BE
:100678004FF0000E013C00F3AB8014F1360FDEBFE3
:10068800002001F0004170BDC4F10004203C35DABF
:100698000C341BDC04F11404C4F1200500FA05F342
:1006A80020FA04F001FA05F240EA020001F00042E3
:1006B80021F0004110EBD37021FA04F642EB060159
:1006C8005EEA430E08BF20EAD37070BDC4F10C0483
:1006D800C4F1200500FA04F320FA05F001FA04F247
:1006E80040EA020001F0004110EBD37041F1000133
:1006F8005EEA430E08BF20EAD37070BDC4F120053E
:1007080000FA05F24EEA020E20FA04F301FA05F2A5
:1007180043EA020321FA04F001F0004121FA04F24D
:1007280020EA020000EBD3705EEA430E08BF20EA1D
:10073800D37070BD94F0000F0FD101F00046400057
:1007480041EB010111F4801F08BF013CF7D041EAD9
:10075800060195F0000F18BF704703F000465200DD
:1007680043EB030313F4801F08BF013DF7D043EAAE
:100778000603704794EA0C0F0CEA135518BF95EA64
:100788000C0F0CD050EA410618BF52EA4306D1D1EB
:1007980081EA030101F000414FF0000070BD50EA0A
:1007A800410606BF1046194652EA430619D094EA94
:1007B8000C0F02D150EA013613D195EA0C0F05D17E
:1007C80052EA03361CBF104619460AD181EA0301D2
:1007D80001F0004141F0FE4141F470014FF000008A
:1007E80070BD41F0FE4141F4780170BD70B54FF025
:1007F800FF0C4CF4E06C1CEA11541DBF1CEA1355A5
:1008080094EA0C0F95EA0C0F00F0A7F8A4EB050486
:1008180081EA030E52EA03354FEA013100F088807D
:100828004FEA03334FF0805545EA131343EA126346
:100838004FEA022245EA111545EA10654FEA0026FB
:100848000EF000419D4208BF964244F1FD0404F5B4
:10085800407402D25B084FEA3202B61A65EB030510
:100868005B084FEA32024FF480104FF4002CB6EBCD
:10087800020E75EB030E22BFB61A754640EA0C004D
:100888005B084FEA3202B6EB020E75EB030E22BF8D
:10089800B61A754640EA5C005B084FEA3202B6EBCE
:1008A800020E75EB030E22BFB61A754640EA9C008D
:1008B8005B084FEA3202B6EB020E75EB030E22BF5D
:1008C800B61A754640EADC0055EA060E18D04FEA1B
:1008D800051545EA16754FEA06164FEAC30343EABB
:1008E80052734FEAC2025FEA1C1CC0D111F4801F88
:1008F8000BD141EA00014FF000004FF0004CB6E781
:1009080011F4801F04BF01430020B4F1FD0C88BF1F
:10091800BCF5E06F3FF6AFAEB5EB030C04BFB6EB2A
:10092800020C5FEA500C50F1000041EB045170BD1D
:100938000EF0004E4EEA113114EB5C04C2BFD4EB4A
:100948000C0541EA045170BD41F480114FF0000ECE
:10095800013C90E645EA060E8DE60CEA135594EA4A
:100968000C0F08BF95EA0C0F3FF43BAF94EA0C0F4D
:100978000AD150EA01347FF434AF95EA0C0F7FF4C2
:1009880025AF104619462CE795EA0C0F06D152EA16
:1009980003353FF4FDAE1046194622E750EA4106FA
:1009A80018BF52EA43067FF4C5AE50EA41047FF40B
:1009B8000DAF52EA43057FF4EBAE12E74FEA41026E
:1009C800B2F1E04324BFB3F5001CDCF1FE5C0DD9A5
:1009D80001F0004C4FEAC0024CEA5070B2F1004FEF
:1009E80040EB830008BF20F00100704711F0804FF2
:1009F80021D113F13872BCBF01F00040704741F4B7
:100A080080114FEA5252C2F11802C2F1200C10FABA
:100A18000CF320FA02F018BF40F001004FEAC1239E
:100A28004FEAD32303FA0CFC40EA0C0023FA02F342
:100A38004FEA4303CCE77FEA625307D150EA013318
:100A48001EBF4FF0FE4040F44000704701F00040E8
:100A580040F0FE4040F40000704700BF80F00040C6
:100A680002E000BF81F0004142001FBF5FEA41037E
:100A780092EA030F7FEA226C7FEA236C6AD04FEA7E
:100A88001262D2EB1363C1BFD218414048404140C3
:100A9800B8BF5B42192B88BF704710F0004F40F475
:100AA800000020F07F4018BF404211F0004F41F491
:100AB800000121F07F4118BF494292EA030F3FD05D
:100AC800A2F1010241FA03FC10EB0C00C3F1200370
:100AD80001FA03F100F0004302D5494260EB4000FF
:100AE800B0F5000F13D3B0F1807F06D340084FEA6A
:100AF800310102F10102FE2A51D2B1F1004F40EB5F
:100B0800C25008BF20F0010040EA030070474900C6
:100B180040EB0000013A28BFB0F5000FEDD2B0FA63
:100B280080FCACF1080CB2EB0C0200FA0CF0AABF86
:100B380000EBC25052421843BCBFD0401843704724
:100B480092F0000F81F4000106BF80F4000001322A
:100B5800013BB5E74FEA41037FEA226C18BF7FEA01
:100B6800236C21D092EA030F04D092F0000F08BF43
:100B78000846704790EA010F1CBF0020704712F02A
:100B88007F4F04D1400028BF40F00040704712F169
:100B980000723CBF00F50000704700F0004343F0CE
:100BA800FE4040F4000070477FEA226216BF084604
:100BB8007FEA23630146420206BF5FEA412390EAC7
:100BC800010F40F4800070474FF0000304E000BFBD
:100BD80010F0004348BF40425FEA000C08BF70476E
:100BE80043F0964301464FF000001CE050EA010232
:100BF80008BF70474FF000030AE000BF50EA010247
:100C080008BF704711F0004302D5404261EB410133
:100C18005FEA010C02BF84460146002043F0B64358
:100C280008BFA3F18053A3F50003BCFA8CF2083A7D
:100C3800A3EBC25310DB01FA02FC634400FA02FC86
:100C4800C2F12002BCF1004F20FA02F243EB02008D
:100C580008BF20F00100704702F1200201FA02FCEF
:100C6800C2F1200250EA4C0021FA02F243EB0200E2
:100C780008BF20EADC7070474FF0FF0C1CEAD05226
:100C88001EBF1CEAD15392EA0C0F93EA0C0F6FD0E7
:100C98001A4480EA010C400218BF5FEA41211ED0C5
:100CA8004FF0006343EA501043EA5111A0FB0131B1
:100CB8000CF00040B1F5000F3EBF490041EAD37186
:100CC8005B0040EA010062F17F02FD2A1DD8B3F102
:100CD800004F40EBC25008BF20F00100704790F071
:100CE800000F0CF0004C08BF49024CEA502040EAC3
:100CF80051207F3AC2BFD2F1FF0340EAC250704789
:100D080040F400004FF00003013A5DDC12F1190FC6
:100D1800DCBF00F000407047C2F10002410021FA38
:100D280002F1C2F1200200FA02FC5FEA310040F150
:100D3800000053EA4C0308BF20EADC70704792F0C9
:100D4800000F00F0004C02BF400010F4000F013A01
:100D5800F9D040EA0C0093F0000F01F0004C02BFFC
:100D6800490011F4000F013BF9D041EA0C018FE76B
:100D78000CEAD15392EA0C0F18BF93EA0C0F0AD071
:100D880030F0004C18BF31F0004CD8D180EA010097
:100D980000F00040704790F0000F17BF90F0004F30
:100DA800084691F0000F91F0004F14D092EA0C0F12
:100DB80001D142020FD193EA0C0F03D14B0218BFA5
:100DC800084608D180EA010000F0004040F0FE40EB
:100DD80040F40000704740F0FE4040F44000704787
:100DE8004FF0FF0C1CEAD0521EBF1CEAD15392EA06
:100DF8000C0F93EA0C0F69D0A2EB030280EA010CF6
:100E080049024FEA402037D04FF0805343EA11118E
:100E180043EA10130CF000408B4238BF5B0042F1EC
:100E28007D024FF4000C8B4224BF5B1A40EA0C0091
:100E3800B3EB510F24BFA3EB510340EA5C00B3EBC3
:100E4800910F24BFA3EB910340EA9C00B3EBD10FB1
:100E580024BFA3EBD10340EADC001B0118BF5FEA03
:100E68001C1CE0D1FD2A3FF650AF8B4240EBC2502C
:100E780008BF20F0010070470CF0004C4CEA5020ED
:100E88007F32C2BFD2F1FF0340EAC250704740F43C
:100E980000004FF00003013A37E792F0000F00F02E
:100EA800004C02BF400010F4000F013AF9D040EAAC
:100EB8000C0093F0000F01F0004C02BF490011F440
:100EC800000F013BF9D041EA0C0195E70CEAD15338
:100ED80092EA0C0F08D142027FF47DAF93EA0C0F1F
:100EE8007FF470AF084676E793EA0C0F04D14B0203
:100EF8003FF44CAF08466EE730F0004C18BF31F0B5
:100F0800004CCAD130F000427FF45CAF31F00043AE
:100F18007FF43CAF5FE700BF4FF0FF3C06E000BF47
:100F28004FF0010C02E000BF4FF0010C4DF804CD6A
:100F38004FEA40024FEA41037FEA226C18BF7FEA7A
:100F4800236C11D001B052EA530C18BF90EA010F7C
:100F580058BFB2EB030088BFC81738BF6FEAE1700B
:100F680018BF40F0010070477FEA226C02D15FEAA7
:100F7800402C05D17FEA236CE4D15FEA412CE1D013
:100F88005DF8040B704700BF844608466146FFE7DA
:100F98000FB5FFF7C9FF002848BF10F1000F0FBDBC
:100FA8004DF808EDFFF7F4FF0CBF012000205DF8B5
:100FB80008FB00BF4DF808EDFFF7EAFF34BF01203A
:100FC80000205DF808FB00BF4DF808EDFFF7E0FFD3
:100FD80094BF012000205DF808FB00BF4DF808ED24
:100FE800FFF7D2FF94BF012000205DF808FB00BF87
:100FF8004DF808EDFFF7C8FF34BF012000205DF869
:1010080008FB00BF42000ED2B2F1FE4F0BD34FF0E7
:101018009E03B3EB126209D44FEA002343F0004366
:1010280023FA02F070474FF00000704712F1610F89
:1010380001D1420202D14FF0FF3070474FF000005B
:10104800704700BF00B58BB01B481C4B03600423DE
:10105800436000238360C3604FF4C0220261436190
:10106800037643768376C3760377437700F0AAFD49
:10107800C0B90023059306930122079200930193B8
:1010880002930393049308920E23099369460A482E
:1010980000F03EFE48B9084800F0C0FE40B90BB069
:1010A8005DF804FB00F086F9E3E700F083F9F2E766
:1010B80000F080F9F3E700BF8004002000640040DE
:1010C80010B586B000230293039304930593026836
:1010D8001E4B9A4201D006B010BD03F5D633DA692B
:1010E80042F00072DA61DA6902F000720092009A46
:1010F8009A6942F008029A619B6903F00803019318
:10110800019B4FF480730293114C02A9204600F012
:101118001FFF4FF4007302930223039303230593E5
:1011280002A9204600F014FF0A4A536823F4C0437A
:1011380043F0E06343F480435360536823F4C043AF
:1011480043F0E06343F480435360C4E70064004025
:10115800000C01400000014010B44FF0E0235C692E
:1011680000FB04FC0C4AA2FB0C2C4FEA9C1C9B695C
:10117800002104E0E01A02441144614509D21A46EC
:101188004FF0E0239B699A42FAD0F3D9D21A11445E
:10119800F3E710BC704700BFD34D62102DE9F04F44
:1011A80089B000240494059406940794544B9A69D2
:1011B80042F010029A619A6902F010020092009AB5
:1011C8009A6942F020029A619A6902F0200201921B
:1011D800019A9A6942F004029A619A6902F004023B
:1011E8000292029A9A6942F008029A619B6903F096
:1011F80008030393039B434E224648F212013046EC
:1012080000F0C6FF01224FF40051304600F0C0FF45
:10121800DFF8F49001224021484600F0B9FFDFF8DA
:10122800ECB022464FF48071584600F0B1FF072712
:101238000497374B0593069404A9484600F088FEA6
:10124800122304930125059506944FF00208CDF862
:101258001C8004A9304600F07BFE4FF40053049331
:10126800059506954FF0030ACDF81CA004A9304651
:1012780000F06EFE4FF4804304930594069504A98C
:10128800304600F065FE4FF4004304930595CDF811
:101298001880CDF81CA004A9304600F059FE402360
:1012A800049305950695CDF81CA004A9484600F0BE
:1012B8004FFE4FF48073049305950694CDF81C8077
:1012C80004A9584600F044FE22462146062000F0B4
:1012D800E5FD062000F01AFE22462146384600F0B9
:1012E800DDFD384600F012FE22462146082000F0B7
:1012F800D5FD082000F00AFE09B0BDE8F08F00BF58
:1013080000100240000C014000100140000801409C
:101318000000111008B50B480B4B03600B4B4360E2
:1013280000238360C3604FF480420261436183619C
:10133800C361036201F0CCF900B908BD00F03AF8C6
:10134800FBE700BFA804002000580040A086010069
:1013580010B586B0002302930393049305930268A3
:10136800114B9A4201D006B010BD104CA36943F04E
:101378000803A361A36903F008030093009B4FF4DB
:1013880040630293122303930323059302A9084899
:1013980000F0DEFDE36943F48003E361E36903F4ED
:1013A80080030193019BDEE70058004000100240D3
:1013B800000C014072B6FEE700B591B0282200216A
:1013C80006A802F067FF0023019302930393049396
:1013D8000593012206924FF4803307930A92022262
:1013E8000D920E934FF4E0130F9306A801F0BAFC88
:1013F80080B90F23019302210291002303934FF434
:1014080080620492059301A801F0DEFE20B911B0B4
:101418005DF804FBFFF7CEFFFFF7CCFF10B582B0F5
:1014280000F098FBFFF7C8FFFFF7B8FEFFF772FF61
:1014380000F01AF900F0A4FA00F0E2F800F04AF916
:1014480000F07EF900F0A4F8FFF7FCFD00F0B2FA16
:10145800144B0093144B154A1549164802F056FED2
:10146800154801F0BBFF03E04FF4FA7000F096FB5B
:1014780002F086FB0028F7D102F012FC0F4B18701F
:10148800062002F0FBFB0446052002F0F7FBA0F162
:101498008002C4F17F01074802F098FE322000F074
:1014A8007DFBE9E7F40600201C0600206406002006
:1014B800AC060020FC040020D40500200000002019
:1014C80082B00E4B9A6942F001029A619A6902F061
:1014D80001020092009ADA6942F08052DA61DB690F
:1014E80003F080530193019B054A536823F0E0639E
:1014F80043F00073536002B0704700BF0010024011
:1015080000000140FEE7FEE7FEE7FEE7FEE7704762
:101518007047704708B500F02FFB08BD08B50120DB
:1015280000F03EFE08BD08B5022000F039FE08BDF7
:1015380008B5042000F034FE08BD000008B50248D4
:1015480001F08DFF08BD00BFD405002008B5024892
:1015580001F085FF08BD00BF1C06002008B5024841
:1015680001F07DFF08BD00BF6406002008B50248F1
:1015780001F075FF08BD00BFAC06002008B50248A1
:1015880001F06DFF08BD00BFF406002070470000A1
:1015980000B587B000230293039304930593009347
:1015A80001931548154A026047224260836040F261
:1015B800E732C26003614361836102F059F890B970
:1015C8004FF48053029302A90B4802F0E5F868B97A
:1015D8000023009301936946074802F0D1F940B906
:1015E80007B05DF804FBFFF7E5FEE9E7FFF7E2FE69
:1015F800EEE7FFF7DFFEF3E7D4050020002C0140FB
:1016080000B58DB02422002103A802F043FE002378
:101618000193029313484FF0804202604360836055
:101628004FF6FF72C26003618361032303930122B3
:1016380005920A23079309920B9303A902F044F831
:1016480050B900230193029301A9064802F098F9C2
:1016580028B90DB05DF804FBFFF7ACFEF1E7FFF722
:10166800A9FEF6E71C06002000B58DB02422002153
:1016780003A802F00FFE0023019302931348144AB3
:101688000260436083604FF6FF72C260036183614A
:1016980003230393012205920A23079309920B93CC
:1016A80003A902F011F850B900230193029301A98C
:1016B800064802F065F928B90DB05DF804FBFFF79C
:1016C80079FEF1E7FFF776FEF6E700BF6406002033
:1016D8000004004000B58DB02422002103A802F0C8
:1016E800D9FD0023019302931348144A0260436012
:1016F80083604FF6FF72C260036183610323039323
:10170800012205920A23079309920B9303A901F07A
:10171800DBFF50B900230193029301A9064802F0A8
:101728002FF928B90DB05DF804FBFFF743FEF1E788
:10173800FFF740FEF6E700BFAC06002000080040B7
:1017480000B58DB02422002103A802F0A3FD0023D8
:10175800019302931348144A0260436083604FF672
:10176800FF72C26003618361032303930122059220
:101778000A23079309920B9303A901F0A5FF50B917
:1017880000230193029301A9064802F0F9F828B949
:101798000DB05DF804FBFFF70DFEF1E7FFF70AFE59
:1017A800F6E700BFF4060020000C004002680E4B6C
:1017B8009A4200D0704700B583B003F564439A6934
:1017C80042F400629A619B6903F400630193019BF0
:1017D80000221146192000F061FB192000F096FB49
:1017E80003B05DF804FB00BF002C014010B58EB0BB
:1017F80000230A930B930C930D930368B3F1804F66
:101808000BD0584A934247D0574A934266D0574A1A
:10181800934200F085800EB010BD03F50433DA69F9
:1018280042F00102DA61DA6902F001020192019ADA
:101838009A6942F004029A619A6902F004020292DB
:10184800029A9A6942F008029A619B6903F00803B8
:101858000393039B4FF400430A930AA9444800F0FA
:1018680077FB08230A9300240B940C940AA9414897
:1018780000F06EFB404A536823F4407343F0E06382
:1018880043F480735360224621461C2000F006FB77
:101898001C2000F03BFBBEE7384BDA6942F002023D
:1018A800DA61DA6902F002020492049A9A6942F053
:1018B80004029A619B6903F004030593059BC02306
:1018C8000A930AA92A4800F043FB002211461D206A
:1018D80000F0E4FA1D2000F019FB9CE7274BDA69B9
:1018E80042F00402DA61DA6902F004020692069A0A
:1018F8009A6942F008029A619B6903F0080307930A
:10190800079BC0230A930AA91A4800F021FB00226A
:1019180011461E2000F0C2FA1E2000F0F7FA7AE7FE
:10192800164BDA6942F00802DA61DA6902F0080255
:101938000892089A9A6942F004029A619B6903F036
:1019480004030993099B03230A930AA9084800F092
:10195800FFFA00221146322000F0A0FA322000F0EF
:10196800D5FA58E70004004000080040000C004089
:1019780000080140000C0140000001400010024036
:1019880008B50A480A4B03604FF4E133436000236B
:101998008360C36003610C2242618361C36102F00A
:1019A80079F800B908BDFFF705FDFBE73C07002003
:1019B8000038014008B50A480A4B03604FF4E13388
:1019C800436000238360C36003610C22426183612A
:1019D800C36102F05FF800B908BDFFF7EBFCFBE755
:1019E800840700200044004010B588B00023049309
:1019F80005930693079303682C4A934204D02C4A14
:101A080093422BD008B010BD2A4B9A6942F4804209
:101A18009A619A6902F480420092009A9A6942F0A7
:101A280004029A619B6903F004030193019B4FF43C
:101A38000073049302230593032307931E4C04A900
:101A4800204600F085FA4FF4806304930023059341
:101A5800069304A9204600F07BFAD3E7154BDA6910
:101A680042F40032DA61DA6902F400320292029A30
:101A78009A6942F004029A619B6903F00403039394
:101A8800039B0423049302230593032307930A4C1F
:101A980004A9204600F05CFA082304930023059368
:101AA800069304A9204600F053FAABE7003801403A
:101AB800004400400010024000080140FFF766FDA6
:101AC8000B480C490C4A002302E0D458C450043394
:101AD800C4188C42F9D3094A094C002301E0136069
:101AE8000432A242FBD302F0B1FBFFF797FC704728
:101AF80000000020640400207444000864040020EE
:101B0800F0070020FEE7000010B504460E4B1878D9
:101B18004FF47A73B3FBF0F30C4A1068B0FBF3F0A0
:101B280000F002FA68B90F2C01D901200AE000225E
:101B380021464FF0FF3000F0B1F9054B1C60002042
:101B480000E0012010BD00BF0800002004000020B4
:101B58000C00002008B5074A136843F0100313600F
:101B6800032000F089F90F20FFF7CEFFFFF7A8FC4C
:101B7800002008BD00200240034A1168034B1B786F
:101B88000B441360704700BFCC07002008000020FA
:101B9800014B1868704700BFCC07002038B50446D1
:101BA800FFF7F6FF0546B4F1FF3F02D0044B1B7860
:101BB8001C44FFF7EDFF401BA042FAD338BD00BF1D
:101BC80008000020002800F0A18038B5044690F8ED
:101BD8002030D3B12268136843F001031360FFF784
:101BE800D7FF054623685A6812F0010F10D1FFF796
:101BF800CFFF401B0A28F5D9636A43F400336362B8
:101C0800052384F82030012038BDFFF759FAE1E7B1
:101C18001A6822F002021A60FFF7BAFF0546236825
:101C28005A6812F0020F0DD0FFF7B2FF401B0A28C6
:101C3800F5D9636A43F400336362052384F82030DE
:101C48000120E1E7227E012A3DD01A6822F08002B5
:101C58001A60637E012B3BD02268136823F040038F
:101C68001360A37E012B39D02268136823F0200368
:101C78001360E37E012B37D02268136843F010030A
:101C88001360237F012B35D02268136823F00803E3
:101C98001360637F012B33D02268136823F0040399
:101CA8001360A368E268134322691343626913430C
:101CB8006268013A21681343CB6100206062012306
:101CC80084F82030A0E71A6842F080021A60C0E762
:101CD8002268136843F040031360C2E72268136860
:101CE80043F020031360C4E72268136823F010034D
:101CF8001360C6E72268136843F008031360C8E757
:101D08002268136843F004031360CAE70120704790
:101D1800026890F82030013BDBB2012B05D9436AF9
:101D280043F4802343620120704710B5D2F8003293
:101D380043F00103C2F800324B6903F01F0301208E
:101D480000FA03F3D2F81C026FEA030C20EA03003E
:101D5800C2F81C02C869C0B9D2F80C020CEA00002B
:101D6800C2F80C028C884869D1F80CE044EA0E44A9
:101D7800483042F830400C884869D1F808E044EA15
:101D88000E44483002EBC0004460C86901281AD0EC
:101D9800886988BBD2F804020CEA0000C2F8040281
:101DA800086978BBD2F814020CEA0000C2F81402E1
:101DB800096A01292CD0D2F8003223F00103C2F8B5
:101DC8000032002010BDD2F80C021843C2F80C02F1
:101DD8008C884869D1F800E044EA0E44483042F85B
:101DE80030408C894869D1F808E044EA0E4448300C
:101DF80002EBC0004460CBE7D2F804021843C2F8F3
:101E08000402CDE7D2F814021843C2F81402CFE74F
:101E1800D2F81C120B43C2F81C32CCE770B504464A
:101E280090F82050EDB2012D06D0436A43F4002308
:101E380043620125284670BD022380F820300268DD
:101E4800136823F001031360FFF7A2FE0646236818
:101E58005B6813F0010F0CD0FFF79AFE831B0A2B67
:101E6800F5D9636A43F400336362052384F82030AC
:101E7800E0E700256562DDE7074AD36823F4E063FD
:101E88001B041B0C000200F4E060034343F0BF6333
:101E980043F40033D360704700ED00E000B5194B00
:101EA800DB68C3F30223C3F1070CBCF1040F28BF9E
:101EB8004FF0040C03F1040EBEF1060F18D9033BD2
:101EC8004FF0FF3E0EFA0CFC21EA0C0199400EFA85
:101ED80003F322EA0303194300280BDB0901C9B203
:101EE80000F1604000F5614080F800135DF804FBE4
:101EF8000023E5E700F00F000901C9B2024B1954AD
:101F0800F4E700BF00ED00E014ED00E0002807DB77
:101F180000F01F02400901239340024A42F8203092
:101F2800704700BF00E100E00138B0F1807F0BD2BC
:101F38004FF0E0235861054AF02182F82310002071
:101F4800986107221A6170470120704700ED00E090
:101F580070B582B00024A446B0E0874DAA4210D0E4
:101F680007D9864DAA420CD005F58035AA4208D07B
:101F780013E0A5F58015AA4203D005F57025AA42FD
:101F880007D18A68002A62D0012A5BD043610824FD
:101F980003E0A5F58015AA42F3D0BEF1FF0F58D88B
:101FA8000646BEF1FF0F56D84FEA8C0233680F255C
:101FB800954023EA050304FA02F2134333604B68A1
:101FC80013F0805F78D06E4B9A6942F001029A61F3
:101FD8009B6903F001030193019B4FEA9C02951C46
:101FE800684B53F825600CF003039D000F23AB40AA
:101FF80026EA0306644B984233D003F5806398427F
:1020080000F0988003F58063984200F0958003F50E
:102018008063984200F0928003F58063984200F054
:102028008F8003F58063984219D006231AE0CC68A4
:10203800B3E7CC680434B0E7CC680834ADE7CC68C3
:102048000C34AAE703610824A7E70024A5E70424C1
:10205800A3E7061DA5E7ACF108029200A6E7052351
:1020680000E00023AB4033430232464D45F82230AE
:102078004B6813F4801F65D0444A936843EA0E0303
:1020880093604B6813F4001F62D0404AD36843EA58
:102098000E03D3604B6813F4003F5FD03B4A53688C
:1020A80043EA0E0353604B6813F4803F5CD0374A11
:1020B800136843EA0E0313600CF1010C0A6832FA44
:1020C8000CF357D0012303FA0CF302EA030E33EAA8
:1020D8000202F1D14A68122A3FF63FAF122A3FF6B0
:1020E8005CAF01A555F822F08B1F000837200008C7
:1020F8004120000853200008A31F0008A31F000860
:10210800A31F0008A31F0008A31F0008A31F00089F
:10211800A31F0008A31F0008A31F0008A31F00088F
:10212800A31F0008A31F0008A31F00083B200008E6
:1021380047200008012395E7022393E7032391E74B
:1021480004238FE7114A936823EA0E03936098E704
:102158000E4AD36823EA0E03D3609BE70B4A536801
:1021680023EA0E0353609EE7084A136823EA0E0326
:102178001360A1E702B070BD00002210000031100A
:102188000010024000000140000801400004014026
:102198000AB1016170470904016170477047000086
:1021A80008B5054B5B69034200D108BD024B586175
:1021B800FFF7F4FFF9E700BF0004014003685A691C
:1021C80012F4806F01D1002070476FF480625A6169
:1021D80000230363202280F83D2080F83E30026C03
:1021E80042F00402026480F83C30012070472DE977
:1021F800F04106460C46174698463BE0FFF7C8FCF8
:10220800069BC01A404502D8B8F1000F32D1012D03
:1022180018D033689B6924EA03039BB2B3FA83F3AB
:102228005B099F4226D100233363202286F83D2094
:1022380086F83E30326C42F02002326486F83C3038
:10224800012027E033685B6924EA03039BB2B3FAF1
:1022580083F35B09E5E733685B6924EA030C1FFA3B
:102268008CFCBCFA8CFC4FEA5C1C674511D1B8F1B8
:10227800FF3FC3D1C4F30745012DECD033689B69F8
:1022880024EA030C1FFA8CFCBCFA8CFC4FEA5C1C99
:10229800EBE70020BDE8F0812DE9F84305460E463E
:1022A8009046994653E01A6842F400721A602B6807
:1022B8006FF480625A6100232B63202285F83D2049
:1022C80085F83E302A6C42F004022A6485F83C30D6
:1022D80001204AE0FFF75CFCA0EB0900404502D86A
:1022E800B8F1000F33D1012F17D02B689B6926EA6C
:1022F80003039BB2003B18BF012343B300232B63A6
:10230800202285F83D2085F83E302A6C42F02002D4
:102318002A6485F83C30012027E02B685B6926EAAF
:1023280003039BB2003B18BF0123E6E72B689C69B7
:1023380026EA0404A4B2003C18BF0124A4B12B6807
:102348005A6912F4806FAED1B8F1FF3FC2D1C6F31B
:102358000747012FEAD12B685C6926EA0404A4B276
:10236800003C18BF0124E9E70020BDE8F88370B5F8
:1023780004460D46164623685B6913F0800F21D189
:102388002046FFF71BFFF8B9B5F1FF3FF3D0FFF781
:10239800FFFB801BA84201D8002DECD123685B69A4
:1023A80013F0800FE7D100232363202284F83D2017
:1023B80084F83E30226C42F02002226484F83C30DB
:1023C800012000E0002070BD0120FCE72DE9F0436A
:1023D80085B004460D4691461F46DDF830800D9EB7
:1023E8000368196841F48071196000964346002219
:1023F8004FF00111FFF7FBFE60B9236805F0FE05F9
:102408001D613346424626492046FFF745FF68B11D
:10241800012008E023681B6813F4807F02D04FF482
:1024280000732364032005B0BDE8F0830023039301
:1024380023685A6903929B690393039B324641467A
:102448002046FFF794FF30B9012F0FD123685FFAB8
:1024580089F61E61E7E7236C042B01D00120E2E72F
:102468002268136843F400731360F7E723684FEAA0
:1024780019221A61324641462046FFF778FF20B9F3
:1024880023685FFA89F61E61CDE7236C042B01D01F
:102498000120C8E72268136843F400731360F7E764
:1024A800020001002DE9F04784B004460D461646A7
:1024B80099460C9FDDF834800268136843F4806302
:1024C80013600368196841F480711960CDF80080C1
:1024D8003B4600224FF00111FFF789FE70B95FFA01
:1024E80085FA236805F0FE051D6143463A464149D1
:1024F8002046FFF7D1FE68B1012008E023681B6879
:1025080013F4807F02D04FF400732364032004B0D7
:10251800BDE8F0870023039323685A6903929B69F7
:102528000393039B424639462046FFF720FF80B9B4
:10253800B9F1010F18D12368F6B21E614246394637
:102548002046FFF714FF68B3236C042B24D0012026
:10255800DDE7236C042B01D00120D8E7226813683B
:1025680043F400731360F7E72368320A1A6142469E
:1025780039462046FFF7FBFE18B92368F6B21E61FC
:10258800DCE7236C042B01D00120C0E72268136824
:1025980043F400731360F7E72268136843F4007389
:1025A8001360D4E72268136843F480731360CDF88E
:1025B80000803B4600224FF001112046FFF717FE2E
:1025C80068B922684AF00103136143463A4609494B
:1025D8002046FFF761FE002899D0012097E723687D
:1025E8001B6813F4807F02D04FF400732364032028
:1025F8008DE700BF0200010070B504460D4616467F
:1026080023685B6913F0040F21D12046FFF7D6FD3C
:10261800F8B9B5F1FF3FF3D0FFF7BAFA801BA8422B
:1026280001D8002DECD123685B6913F0040FE7D1C2
:1026380000232363202284F83D2084F83E30226C56
:1026480042F02002226484F83C30012000E000209F
:1026580070BD0120FCE770B504460D46164614E02F
:102668006FF010025A6100232363202284F83D2072
:1026780084F83E30226C226484F83C30012025E046
:1026880023685B6913F0400F10D02368586910F075
:10269800400F1AD1586910F0100FE1D1FFF778FAFE
:1026A800801BA842ECD8002DEFD1E9E70023236373
:1026B800202284F83D2084F83E30226C42F020022B
:1026C800226484F83C30012000E0002070BD000046
:1026D800002800F0CC8070B5044690F83D30002BFF
:1026E80077D0242384F83D302268136823F001034F
:1026F80013602268136843F4004313602268136868
:1027080023F40043136000F01BFE62685A4B9A42A0
:1027180064D85A4B98428CBF00230123002B40F009
:10272800A8805749A1FB00318B0C25686A6822F004
:102738003F0242EA91426A6021680A6A22F03F0237
:1027480066684D4DAE424FD8013313430B62216882
:10275800CA6922F44F4222F0FF026668464B9E4245
:102768004CD8431E7600B3FBF6F3013340F6FC70F9
:10277800034278D0C3F30B031343CB6121680B6882
:1027880023F0C003E269206A024313430B60216807
:102798008B6823F4034323F0FF032269E0680243B4
:1027A80013438B602168CB6823F0FF036269A0693B
:1027B80002431343CB602268136843F0010313609C
:1027C80000202064202384F83D30206384F83E00F4
:1027D80070BD80F83C30FEF7BBFD82E7294B98427C
:1027E8008CBF0023012399E74FF4967505FB03F38B
:1027F800254DA5FB03539B090133A6E7A368BBB985
:10280800451E06EB460CB5FBFCF50135C5F30B057B
:10281800B5FA85F56D0945BBC3B9013806EB460322
:10282800B0FBF3F30133C3F30B0343F40043A3E713
:10283800451E06EB860C0CEB8C0CB5FBFCF5013544
:10284800C5F30B05B5FA85F56D09E4E7013806EB24
:10285800860303EB8303B0FBF3F30133C3F30B03EA
:1028680043F4404388E7042386E7012384E70120F3
:1028780070470120ACE700BFA08601007F841E00DE
:1028880083DE1B43FF083D00D34D62102DE9F04362
:1028980083B004460F46904699460C9EFFF778F998
:1028A800054694F83D00C0B2202803D0022003B0AA
:1028B800BDE8F0830095192301224B492046FFF714
:1028C80096FC002840F0898094F83C30012B00F0F9
:1028D8008680012384F83C3023681A6812F0010FBF
:1028E80003D11A6842F001021A602268136823F4BF
:1028F80000631360212384F83D30402384F83E3080
:10290800002323640A9B6362BDF82C306385638DC2
:102918002385364BE362019500964B46424639467D
:102928002046FFF753FD00285BD1238D002B35D0BF
:102938002A4631462046FFF71AFD20BB626A236803
:1029480012781A61626A531C6362218D013989B257
:102958002185638D9BB2013B9BB2638523685869CF
:1029680010F0040FE1D00029DFD052781A61636AB1
:1029780001336362238D013B2385638D9BB2013B49
:102988009BB26385D1E7236C042B01D001208EE72D
:102998002268136843F400731360F7E72A46314648
:1029A8002046FFF729FE50B1236C042B01D00120EB
:1029B8007DE72268136843F400731360F7E7226821
:1029C800136843F400731360202384F83D30002318
:1029D80084F83E3084F83C3069E7022067E702203B
:1029E80065E7012063E700BF020010000000FFFF59
:1029F8002DE9F04389B004460F4690469946129E49
:102A080000230793FFF7C4F8054694F83D00C0B2C9
:102A1800202804D00227384609B0BDE8F083009585
:102A28001923012281492046FFF7E1FB002840F0E5
:102A3800728194F83C30012B00F06F81012384F8F7
:102A48003C3023681A6812F0010F03D11A6842F06B
:102A580001021A602268136823F4006313602223BA
:102A680084F83D30402384F83E3000232364109BD3
:102A78006362BDF844306385638D23856C4BE362E4
:102A8800019500964B46424639462046FFF70AFD17
:102A98000746002840F04381238D5BB903932368E0
:102AA8005A6903929A690392039A1A6842F4007267
:102AB8001A60EDE0012B0FD0022B21D02268136899
:102AC80043F4806313600023069323685A690692CF
:102AD8009B690693069BDBE02268136823F48063F6
:102AE800136072B60023049323685A6904929A69A2
:102AF8000492049A1A6842F400721A6062B6C7E037
:102B08002268136843F40063136072B600230593C8
:102B180023685A6905929A690592059A1A6822F4F7
:102B280080621A6062B6B3E02A4631462046FFF753
:102B380092FD002840F0F58023681A69636A1A70CC
:102B4800636A01336362238D013B2385638D9BB2E6
:102B5800013B9BB263859BE00095334600223549D3
:102B68002046FFF744FB002840F0DF802268136806
:102B780023F48063136072B623681A69636A1A7053
:102B8800636A01336362238D013B2385638D9BB2A6
:102B9800013B9BB26385284B1B68DB08274AA2FBD5
:102BA80003231B0A03EB8303C3EBC3030793079BAE
:102BB800013B0793079B002B28D023685A6912F022
:102BC800040FF4D01A6842F400721A6023681A6974
:102BD800636A1A70636A01336362238D013B23853C
:102BE800638D9BB2013B9BB2638562B623681A6909
:102BF800636A1A70636A01336362238D013B23851C
:102C0800638D9BB2013B9BB2638541E02363202225
:102C180084F83D2084F83E30226C42F02002226481
:102C280062B684F83C300127F5E600BF02001000C8
:102C38000000FFFF040001000400002089B5F8141B
:102C48002A4631462046FFF706FD00286FD1236843
:102C58001A69636A1A70626A531C6362238D013BA6
:102C68002385638D9BB2013B9BB2638523685969B9
:102C780011F0040F0CD01B695370636A013363624F
:102C8800238D013B2385638D9BB2013B9BB26385FA
:102C9800238D002B36D0032BD2D8012B3FF444AF21
:102CA800022B7FF459AF0095334600222149204674
:102CB800FFF79DFA002836D172B62268136843F4EC
:102CC8000073136023681A69636A1A70636A0133B0
:102CD8006362238D013B2385638D9BB2013B9BB2CD
:102CE800638562B623681A69636A1A70636A013376
:102CF8006362238D013B2385638D9BB2013B9BB2AD
:102D08006385C5E7202384F83D30002384F83E30EE
:102D180084F83C307FE602277DE602277BE6012720
:102D280079E6012777E6012775E6012773E601278B
:102D380071E600BF0400010082B0084B1B68084A16
:102D4800A2FB03235B0A00FB03F3019300BF019B73
:102D58005A1E0192002BF9D102B0704704000020DE
:102D6800D34D6210002800F0F18170B582B004469E
:102D7800036813F0010F2CD0994B5B6803F00C0328
:102D8800042B1DD0964B5B6803F00C03082B12D064
:102D98006368B3F5803F41D0002B55D103F18043E0
:102DA80003F504331A6822F480321A601A6822F490
:102DB80080221A6037E08A4B5B6813F4803FE7D0C3
:102DC800874B1B6813F4003F03D06368002B00F0A7
:102DD800BF81236813F0020F75D0814B5B6813F035
:102DE8000C0F5FD07E4B5B6803F00C03082B54D0AC
:102DF8002369002B00F08A807A4B01221A60FEF7C3
:102E0800C7FE0546764B1B6813F0020F75D1FEF717
:102E1800BFFE401B0228F5D903209EE1704A1368C3
:102E280043F480331360636843B3FEF7B1FE05468D
:102E38006B4B1B6813F4003FCBD1FEF7A9FE401B78
:102E48006428F5D9032088E1B3F5A02F09D0644B95
:102E58001A6822F480321A601A6822F480221A60F2
:102E6800E1E703F18043A3F53C331A6842F480227A
:102E78001A601A6842F480321A60D4E7FEF788FEB6
:102E88000546574B1B6813F4003FA2D0FEF780FE9F
:102E9800401B6428F5D903205FE1514B5B6813F4AC
:102EA800803FA5D14E4B1B6813F0020F03D0236956
:102EB800012B40F04F814A4A136823F0F8036169F7
:102EC80043EAC1031360236813F0080F33D0A369E2
:102ED800002B5CD0434B0122C3F88024FEF758FE38
:102EE80005463F4B5B6A13F0020F21D1FEF750FEF7
:102EF800401B0228F5D903202FE1394A136823F033
:102F0800F803616943EAC1031360DCE7354B00222B
:102F18001A60FEF73DFE0546314B1B6813F0020FA1
:102F2800D1D0FEF735FE401B0228F5D9032014E165
:102F38000120FFF701FF236813F0040F00F09680CB
:102F4800274BDB6913F0805F34D1254BDA6942F0F7
:102F58008052DA61DB6903F080530193019B0125FC
:102F6800214B1B6813F4807F26D0E368012B3DD0EA
:102F7800002B53D103F1804303F504331A6A22F07E
:102F880001021A621A6A22F004021A6233E0154B2F
:102F98000022C3F88024FEF7FBFD0546104B5B6A50
:102FA80013F0020FC7D0FEF7F3FD401B0228F5D936
:102FB8000320D2E00025D3E70B4A136843F480735B
:102FC8001360FEF7E5FD0646074B1B6813F4807F88
:102FD800CBD1FEF7DDFD801B6428F5D90320BCE0CA
:102FE8000010024000004242007000405F4A136A2D
:102FF80043F001031362E36833B3FEF7C9FD0646E5
:103008005A4B1B6A13F0020F2FD1FEF7C1FD801B2C
:1030180041F288339842F3D903209EE0052B09D06A
:10302800524B1A6A22F001021A621A6A22F004024A
:103038001A62E0E74D4B1A6A42F004021A621A6AF1
:1030480042F001021A62D6E7FEF7A2FD0646474B98
:103058001B6A13F0020F08D0FEF79AFD801B41F29D
:1030680088339842F3D9032077E0E5B9E369002B68
:1030780072D03E4A526802F00C02082A56D0022B3F
:1030880017D03B4B00221A66FEF782FD0446374BE9
:103098001B6813F0007F47D0FEF77AFD001B02285B
:1030A800F5D9032059E0314AD36923F08053D3611D
:1030B800DCE72F4B00221A66FEF76AFD05462B4B0C
:1030C8001B6813F0007F06D0FEF762FD401B022844
:1030D800F5D9032041E0236AB3F5803F1AD023498C
:1030E8004B6823F47413226A606A024313434B60EB
:1030F8001F4B01221A66FEF74BFD04461B4B1B684B
:1031080013F0007F0ED1FEF743FD001B0228F5D90E
:10311800032022E0154A536823F40033A1680B43C7
:103128005360DCE7002018E0002016E0012B16D0E1
:103138000E4B5B6803F48031226A914211D103F48B
:103148007013626A93420ED1002006E00120704796
:10315800012002E0012000E0002002B070BD012043
:10316800FBE70120F9E70120F7E700BF0010024064
:10317800000042420F4B5B6803F00C02082A01D0A2
:103188000D487047C3F383420C49885C13F4803FB1
:103198000BD0084B5B68C3F34043094AD35C064A2B
:1031A80002FB00F0B0FBF3F07047064B03FB00F0A6
:1031B800704700BF0010024000127A005044000817
:1031C8006044000800093D00002800F0A08070B5A8
:1031D8000D460446524B1B6803F007038B420BD283
:1031E8004F4A136823F007030B431360136803F077
:1031F80007038B4240F08D80236813F0020F17D02D
:1032080013F0040F04D0474A536843F4E063536053
:10321800236813F0080F04D0424A536843F46053FC
:103228005360404A536823F0F003A1680B4353608E
:10323800236813F0010F31D06368012B20D0022BD3
:1032480025D0384A126812F0020F64D035494A680E
:1032580022F0030213434B60FEF79AFC0646314BFB
:103268005B6803F00C036268B3EB820F16D0FEF7BD
:103278008FFC801B41F288339842F0D9032045E047
:10328800284A126812F4003FE0D101203EE0254AA6
:10329800126812F0007FD9D1012037E0204B1B685B
:1032A80003F00703AB420AD91D4A136823F007034A
:1032B8002B431360136803F00703AB422DD1236837
:1032C80013F0040F06D0174A536823F4E063E1684B
:1032D8000B435360236813F0080F07D0114A536853
:1032E80023F46053216943EAC1035360FFF742FFA7
:1032F8000C4B5B68C3F303130B4AD35CD8400B4BEE
:1033080018600B4B1868FEF7FFFB002070BD01200A
:1033180070470120FAE70120F8E70120F6E700BF2F
:103328000020024000100240384400080400002039
:103338000C000020014B1868704700BF04000020F3
:1033480008B5FFF7F7FF044B5B68C3F30223034A92
:10335800D35CD84008BD00BF0010024048440008B4
:1033680008B5FFF7E7FF044B5B68C3F3C223034AC2
:10337800D35CD84008BD00BF001002404844000894
:1033880010B4036A046A24F001040462846924F016
:10339800F00C4CEA021223F00A030B438261036229
:1033A80010BC704710B4036A046A24F01004046265
:1033B800846924F4704C4CEA023223F0A00343EAF7
:1033C80001138261036210BC7047836823F07003A5
:1033D8000B4343F0070383607047000090F83D30CB
:1033E800DBB2012B2FD1022380F83D300268D3686D
:1033F80043F00103D3600368154A934218D002F5DD
:103408000062934214D0B3F1804F11D0A2F59832E4
:1034180093420DD002F58062934209D002F5806292
:10342800934205D01A6842F001021A6000207047E2
:103438009A6802F00702062A07D01A6842F00102C9
:103448001A6000207047012070470020704700BFB5
:10345800002C01407047704770477047704710B59F
:10346800044603681A6912F0020F11D0DA6812F0E4
:10347800020F0DD06FF002021A610123037703686F
:103488009B6913F0030F70D0FFF7E6FF0023237743
:1034980023681A6912F0040F12D0DA6812F0040FC8
:1034A8000ED06FF004021A610223237723689B6908
:1034B80013F4407F5FD02046FFF7CEFF0023237729
:1034C80023681A6912F0080F12D0DA6812F0080F90
:1034D8000ED06FF008021A61042323772368DB6992
:1034E80013F0030F4ED02046FFF7B6FF00232377D3
:1034F80023681A6912F0100F12D0DA6812F0100F50
:103508000ED06FF010021A61082323772368DB6955
:1035180013F4407F3DD02046FFF79EFF002323771A
:1035280023681A6912F0010F03D0DA6812F0010F4C
:1035380036D123681A6912F0800F03D0DA6812F0C6
:10354800800F34D123681A6912F0400F03D0DA686B
:1035580012F0400F32D123681A6912F0200F03D0FD
:10356800DA6812F0200F30D110BDFFF774FF204643
:10357800FFF773FF8AE72046FFF76DFF2046FFF746
:103588006CFF9BE72046FFF766FF2046FFF765FFC5
:10359800ACE72046FFF75FFF2046FFF75EFFBDE779
:1035A8006FF001021A612046FFF754FFC1E76FF080
:1035B80080021A61204600F022FAC3E76FF0400249
:1035C8001A612046FFF74AFFC5E76FF020021A612B
:1035D800204600F013FAC7E70368244A904212D045
:1035E80002F5006290420ED0B0F1804F0BD0A2F5E8
:1035F8009832904207D002F58062904203D002F5DB
:103608008062904203D123F070034A681343174A3B
:10361800904212D002F5006290420ED0B0F1804F75
:103628000BD0A2F59832904207D002F58062904202
:1036380003D002F58062904203D123F44073CA6834
:10364800134323F080034A69134303608B68C36202
:103658000B688362054B984203D003F500639842D8
:1036680001D10B690363012343617047002C0140BA
:1036780040B310B5044690F83D30F3B1022384F806
:103688003D30214651F8040BFFF7A6FF012384F8CB
:10369800463084F83E3084F83F3084F8403084F86F
:1036A800413084F8423084F8433084F8443084F858
:1036B800453084F83D30002010BD80F83C30FEF7DE
:1036C80075F8DBE701207047002857D070B50D4624
:1036D800044690F83D30002B4BD0022384F83D304F
:1036E8002268936823F4804323F0070393602146FC
:1036F80051F8040BFFF770FF21688A688B690E6A1E
:103708002868104323F4407C2CF0030CAA68AB69AA
:1037180042EA032343EA0C0323F47C4323F0FC032B
:10372800EA69D5F80CC04CEA022C4CEA030C2A6A68
:1037380013032A6943EA021343EA0C0326F022061C
:103748006A686D6942EA05123243886021688B61B4
:1037580023681A62012384F8463084F83E3084F8DE
:103768003F3084F8423084F8433084F83D300020FC
:1037780070BD80F83C30FEF739F8AEE7012070479D
:1037880010B4846824F47F4C42EA03220A4342EAD4
:103798000C02826010BC704790F83C30012B78D046
:1037A80010B50446012380F83C30022380F83D30F0
:1037B8000268936823F47F4323F0770393600B68D0
:1037C800602B4CD029D8402B54D00CD9502B22D167
:1037D800CA6849680068FFF7D3FD50212068FFF7E1
:1037E800F4FD002005E0202B0DD009D9302B0AD09C
:1037F8000120012384F83D30002384F83C3010BDBB
:103808000BB1102B05D119462068FFF7DEFD00200B
:10381800EFE70120EDE70120EBE7B3F5805F34D057
:10382800B3F5005F0CD1CB684A6889680068FFF778
:10383800A7FF2268936843F4804393600020D8E789
:10384800702B24D1CB684A6889680068FFF798FF15
:103858002268936843F0770393600020C9E7CA6839
:1038680049680068FFF79EFD60212068FFF7ADFDFD
:103878000020BEE7CA6849680068FFF781FD40215B
:103888002068FFF7A2FD0020B3E70020B1E7012080
:10389800AFE70220704701F01F01012303FA01FC82
:1038A800036A23EA0C030362036A02FA01F10B4379
:1038B8000362704738B5044690F83E00C0B294F8E9
:1038C8003F3094F84220D2B294F843C00D46B1B9C3
:1038D800012849D1012A48D1022384F83E3084F8CE
:1038E80042307DB3042D39D0012200212068FFF732
:1038F800D2FF012204212068FFF7CDFF27E0DBB2C9
:103908005FFA8CFC042912D0012833D1012B2CD169
:10391800012A31D1BCF1010F30D1022384F83E30A5
:1039280084F83F3084F8423084F84330D9E7012BDB
:103938001CD1BCF1010F1BD1022384F83F3084F85D
:103948004330CEE7012200212068FFF7A4FF226858
:10395800136843F001031360002006E001220421EC
:103968002068FFF798FFF2E7012038BD0120FCE747
:103978001846FAE70120F8E71846F6E71046F4E794
:1039880090F83C30012B34D010B4012380F83C303F
:10399800022380F83D3003685A689C6822F0700C56
:1039A8000A6842EA0C025A600368134A934212D02A
:1039B80002F5006293420ED0B3F1804F0BD0A2F50E
:1039C8009832934207D002F58062934203D002F501
:1039D8008062934204D124F080044A6814439C60B6
:1039E800012380F83D30002380F83C30184610BC95
:1039F80070470220704700BF002C01407047704795
:103A080010B504460268136923F44053C1680B4398
:103A1800136183680269134342691A430168CB68DA
:103A280023F4B05323F00C031343CB6002685369AB
:103A380023F4407381690B4353610268134B9A4224
:103A480020D0FFF77DFC024602EB820202EB8202E5
:103A580063689B00B2FBF3F20D48A0FB02314909F1
:103A6800642303FB11231B013233A0FB03235B09EF
:103A780003F0F00202EB011203F00F032168134474
:103A88008B6010BDFFF76CFC0246DDE70038014093
:103A98001F85EB5160B310B5044690F8413013B35D
:103AA800242384F841302268D36823F40053D36078
:103AB8002046FFF7A5FF2268136923F4904313619A
:103AC8002268536923F02A0353612268D36843F4B8
:103AD8000053D36000206064202384F8413084F8C8
:103AE8004230606310BD80F84030FDF77DFFD7E7B6
:103AF8000120704770B582B005460123ADF8063045
:103B08001D4A00215170ADF806300BE01B4B002216
:103B1800C3F8BC2113E0BDF806309BB25B009BB232
:103B2800ADF80630BDF806309BB2FF2B22D8BDF8A1
:103B380006301D42EAD0114B0122C3F8BC210F4CBC
:103B48000126C4F8B4613220FDF706FB0023C4F84F
:103B5800B4313220FDF700FBC4F8B461D4F8383131
:103B6800002BD8D0BDF806309AB203494B781343DE
:103B78004B70D0E702B070BDD00700200080214212
:103B880038B50B4C0023C4F898310A4D2878FFF754
:103B9800B1FF6878FFF7AEFF0123C4F89831064BF0
:103BA8005B78732B01D0012038BD0020FCE700BFF3
:103BB8000000224210000020D007002030B583B05A
:103BC80000238DF807300122ADF80420274AC2F8F7
:103BD8009831274C2078FFF78DFF6078FFF78AFF30
:103BE80002238DF8073032E0BDF804309BB25B0049
:103BF8009BB2ADF80430BDF804309BB2FF2B1DD842
:103C08001C4C0125C4F8B4510023C4F8B431322047
:103C1800FDF7A2FAC4F8B451D4F83831002BE3D038
:103C2800BDF8042091B29DF80730DBB21248C25C9F
:103C38009DF80730DBB20A43C254D5E73220FDF7BE
:103C48008BFA9DF807300133DBB28DF807309DF809
:103C58000730DBB2082B03D80123ADF80430CAE7DC
:103C6800024B0122C3F8982103B030BD0000224264
:103C78001000002000802142D0070020014B185C72
:103C8800704700BFD0070020002304E0034A00214A
:103C9800D1540133DBB2082BF8D97047D007002084
:103CA80008B5FFF7F1FFFFF789FF0D4B1A79D978AF
:103CB80041EA02210B4B198000230F2B0ED80A4A28
:103CC80032F81320013A41FA02F212F0010F02D041
:103CD8000133DBB2F1E70133D8B200E0002008BDC0
:103CE800D0070020DA07002014000020C3688BB139
:103CF80000B583B00DF1070200210078984758B944
:103D08009DF8070000F010008DF80700000903B0C7
:103D18005DF804FB012070470120F8E770B582B018
:103D2800C36833B304460E46826832B30DF1070206
:103D38000021007898470546E0B99EB19DF8073004
:103D480043F010038DF80730A3689DF80720002181
:103D580020789847054668B966B14FF4FA70FDF7C0
:103D68001DFF07E09DF8073023F010038DF807309A
:103D7800EAE70125284602B070BD0125FAE72DE9DA
:103D8800F04106460F4614461D4600211046FDF731
:103D980011F9002840F0A0804FF07E512046FDF731
:103DA80027F9002840F09A8000212846FDF702F9FB
:103DB800002840F096804FF07E512846FDF718F90C
:103DC800002840F09080B368002B00F08E80F368E4
:103DD800002B00F08C803046FFF788FF002840F069
:103DE80088804FF07E512046FDF7DAF8002847D149
:103DF80000212046FDF7D4F8002868D1294620463E
:103E0800FCF732FE04464FF07E51FDF7DDF8E8B9C5
:103E18004FF08B412846FCF72FFF4FF07C51FCF701
:103E280023FEFDF7EFF81FFA80F84FF07E51204689
:103E3800FCF718FE4FF08B41FCF71EFF4FF07C514A
:103E4800FCF712FEFDF7DEF885B21CE04FF08B415F
:103E58002846FCF711FF4FF07C51FCF705FEFDF7F3
:103E6800D1F81FFA80F84FF08B412046FCF704FF89
:103E78004FF07C51FCF7F8FDFDF7C4F885B202E07D
:103E880000254FF48058B368BC00E4B2A11D5FFA66
:103E980088F201F0FE013078984700BBB368E11D55
:103EA8004FEA1822C9B230789847C0B9B368B91C2C
:103EB8008900EAB201F0FC013078984778B9B36814
:103EC80004F109012A0AC9B23078984707E04FF48B
:103ED80080554FF00008D6E7012000E00120BDE83A
:103EE800F0810120FBE70120F9E70120F7E7012035
:103EF800F5E70420F3E77047F8B504464768C1685A
:103F08003846FCF7AFFDE169FCF7B6FE0646A0624D
:103F1800216AFCF7B1FEE16AFCF7A6FD0546E062FE
:103F280031463846FCF7A0FD01462846FCF79CFDC3
:103F380020630020F8BD0000F8B50446056B002199
:103F48002846FDF755F898B10026134F33463246F8
:103F580061783846FFF713FF2846FFF7CCFF20F0BB
:103F68000042334621783846FFF709FF0020F8BDA4
:103F78000026094F3346324621783846FFF7FFFEC0
:103F88002846FFF7B8FF20F00042334661783846EC
:103F9800FFF7F5FEEAE700BFDC07002000B587B0B1
:103FA8008DF817204FF47A730293012301930DF1D2
:103FB800170200920A4601460248FEF767FC07B05E
:103FC8005DF804FBA804002000B585B04FF47A73AF
:103FD80002930123019300920A4601460248FEF724
:103FE80007FD05B05DF804FBA804002010B50446E1
:103FF800184621706270A3600021FFF75BFC042162
:10400800A068FFF757FC0020E082A08201232376F6
:10401800A3681B685862A3681A68D36843F0010351
:10402800D3600023E3606360A362E3624FF07C52D5
:10403800E2612362636210BD2DE9F047044683689C
:104048001B6800265E6283681B685D6A2DB2304675
:10405800FDF7A4FDA7683B685B6A1BB25B1B94F97C
:10406800185003FB05F51FFA85FA2DB21E4880FB90
:1040780005302844EB17C3EBE02000B2FCF722FA26
:1040880017A3D3E90023FCF787FA804689462069FD
:10409800FCF72AFA42464B46FCF7C8F8FCF78EFCB8
:1040A80020612846FCF794FD1049FCF799FE104959
:1040B800FCF7E2FDFCF718FA09A3D3E90023FCF7A3
:1040C8006BFAFCF77BFCE060A38A5344A382A4F854
:1040D80016A03B685E623046BDE8F087AFF300800B
:1040E800C3F5285C8FC2C53FE1000EE00040924452
:1040F8000000B44310B50446FFF71EFF2046FFF743
:104108009BFF2046FFF7F8FE002010BD70B504465F
:1041180016461D460B460F220E21FFF767FF334652
:104128000122022104F13400FFF760FF2B460D2223
:104138000C2104F16800FFF759FF049B04220321B6
:1041480004F19C00FFF752FFFF2384F8803000231E
:10415800C4F8D030C4F8D4300D48802303700D4B18
:1041680043600D4BC3600D4B8360FFF7BFFD08B97B
:10417800002070BD064C00212046FFF7CFFD00232C
:104188004FF07E5200212046FFF7F9FDF0E700BF0F
:10419800DC07002040787D01D13F0008A53F0008DA
:1041A80041600020704710B50446FFF7A3FF04F1F3
:1041B8006800FFF79FFF04F13400FFF79BFF04F14D
:1041C8009C00FFF797FF002010BD00002DE9F84381
:1041D800044615460846FCF775F900221A4BFCF709
:1041E80005FB06460F462846FCF76CF90022164BDD
:1041F800FCF7FCFA8046894632463B46FCF714F841
:10420800FCF7DCFB054601462046FFF7C9FF42469E
:104218004B4630463946FCF709F8FCF7CFFB064613
:10422800014604F16800FFF7BBFF314604F1340092
:10423800FFF7B6FF294604F19C00FFF7B1FF2046BF
:10424800FFF7B1FFBDE8F88300908A4070B50D4EC6
:104258000D4D761BB61006D0002455F8043B0134EA
:104268009847A642F9D1094E094D00F0D5F8761BBA
:10427800B61006D0002455F8043B01349847A642EE
:10428800F9D170BD6844000868440008704400080B
:1042980068440008830730B548D0541E002A3FD030
:1042A8000346CAB201E0013C3AD303F8012B9D074B
:1042B800F9D1032C2DD9CDB245EA05250F2C45EAB5
:1042C800054536D9A4F1100222F00F0C03F1200E97
:1042D800E6444FEA121C03F1100242E9045542E990
:1042E800025510327245F8D10CF1010214F00C0F8E
:1042F80003EB021204F00F0C13D0ACF1040323F00B
:1043080003030433134442F8045B9342FBD10CF0DB
:1043180003042CB1CAB21C4403F8012B9C42FBD104
:1043280030BD64461346002CF4D1F9E70346144621
:10433800BFE71A46A446E0E7024B13B1024800F073
:1043480005B87047000000006143000800230146DB
:104358001A46184600F01AB838B5084B084D5B1BCA
:104368009C1007D0043B1D44013C55F8043998477C
:10437800002CF9D1BDE8384000F054B87444000866
:1043880070440008704700BF704700BF2DE9F04730
:10439800DFF87CA00646DAF8000098460F469146FA
:1043A800FFF7F0FF1B4B1B68D3F8484124B365683F
:1043B8001F2D26DC5EB96B1C0235DAF8000063603D
:1043C80044F82570FFF7E0FF0020BDE8F0870123DF
:1043D80004EB8501C1F88890D4F88821AB401A43D2
:1043E800022EC4F88821C1F80881E4D1D4F88C21C0
:1043F8001343C4F88C31DEE703F5A674C3F84841CB
:10440800D5E7DAF80000FFF7BFFF4FF0FF30DCE731
:104418006004002064440008F8B500BFF8BC08BC7C
:104428009E467047F8B500BFF8BC08BC9E4670476A
:10443800000000000000000001020304060708094C
:10444800000000000102030402030405060708092E
:104458000A0B0C0D0E0F101001020000380000208E
:08446800414300080D020008A9
:04447000E901000856
:10447400FF0000000024F400010000001000000010
:1044840001420000010002000300040005000600D0
:104494000700080009000A000B000C000D000E00C4
:1044A4000F001000000000000000000024030020A2
:1044B4008C030020F4030020000000000000000032
:1044C40000000000000000000000000000000000E8
:1044D40000000000000000000000000000000000D8
:1044E40000000000000000000000000000000000C8
:1044F40000000000000000000000000000000000B8
:1045040000000000000000000000000000000000A7
:104514000000000000000000000000000000000097
:104524000000000000000000000000000000000087
:104534000000000000000000000000000000000077
:104544000000000000000000000000000000000067
:1045540001000000000000000E33CDAB34126DE604
:10456400ECDE05000B00000000000000000000006D
:104574000000000000000000000000000000000037
:104584000000000000000000000000000000000027
:104594000000000000000000000000000000000017
:1045A4000000000000000000000000000000000007
:0448D400EC070020CD
:0400000508001AC510
:00000001FF
